:020000040000FA
:1000000000008A11732D83120313BB007F08BA000E
:100010007E08BE007D08BD007C08BC00BF01C00199
:10002000831203133F08C1004008C200BF0A03192E
:10003000C00A3F08C3004008C40041084E3EC1004A
:1000400042080318420F003EC2000A30FD00003093
:10005000FE003A08FF003B088A11AD268A11831280
:100060000313C6007F08C500C7003030C70741082A
:100070008400831342188317470880004508BA029A
:100080004608031C460FBB020A30FD000030FE008C
:100090003A08FF003B088A115E268A118312031377
:1000A000BB00C2007F08C100BA0041084204031D22
:1000B00010283F08C3004008C400FF303F07BA00C3
:1000C000FF30BB0040080318400FBB07BF01C00151
:1000D000831203134008803EC8004408803E480253
:1000E000031D742843083F020318AB28831203132F
:1000F0003F083A02C1004008031C400A3B02C2000C
:1001000041083C07C1003D08C2000318420FC20766
:100110003E080318013EC5003F084E3EC6000030B1
:10012000C70040080318400FC70746088400831320
:10013000471883170008C800FD004108FE00420868
:10014000FF0045088A1131278A1183120313BF0A61
:100150000319C00A6828831203133F083C07BF0035
:100160003D08C0000318400FC0073E080318013EB9
:10017000BA000030FD003F08FE004008FF003A08CA
:100180008A1131278A11831203133C08FE003D08AF
:10019000FF003E080800831203139900831603131F
:1001A000981683160313981CD12808008312031392
:1001B000B9007F08B8007E08FE003808FF00390843
:1001C000EA200A308A11CB208A110D308A11CB2007
:1001D0008A11080083120313B2007F08B1007E0861
:1001E000B000B3018312031333083007B4003108A1
:1001F0000318013EB50032080318013EB60034086A
:10020000FE003508FF0036088A113D278A11831247
:100210000313B700370803192A293308B700B30AB4
:1002200037083007B70031080318013EB400320820
:100230000318013EB5003708FE003408FF003508FA
:100240008A113D278A1183120313B6008A11CB202D
:100250008A11F228080083120313AE007F08AD0054
:100260007E08AF002F08031D3A292D088A11CB20E4
:100270008A115829831203132F080A3A031D5029A3
:100280000314AE1F0310031C50292D308A11CB20FC
:100290008A1183120313AD09AE09AD0A0319AE0A20
:1002A000831203132F08FE002D08FF002E0859218A
:1002B000080083120313A2007F08A1007E08A30098
:1002C00021082204031D692930308A11CB208A11AC
:1002D000FF2983120313A401A501A601A70183121C
:1002E0000313210822040319B1292408A8002508B2
:1002F000A90026082708A40A0319A50A0319A60AB3
:100300000319A70A2808493EA8000030A9000318CD
:10031000290FA907AB012308AA00FD000030FE0049
:100320002108FF0022088A11AD268A117F08831256
:100330000313AC00280884008313291883172C08A2
:1003400080002A08FD002B08FE002108FF0022087B
:100350008A115E268A1183120313A2007F08A1006E
:100360006F29831203132408A1002508A200260880
:10037000A3002708A40083120313210822042304E6
:1003800024040319C6290130A500C92983120313C7
:10039000A50100308312031325040319FF2921034B
:1003A000A500493EA50000300318013EA60025081F
:1003B00084008313261883170008A7000A30270239
:1003C0000318E62930302707A500EB2937308312C0
:1003D00003132707A5008312031325088A11CB20D6
:1003E0008A11FF3083120313A107FF30031CA207F9
:1003F000FF30031CA307FF30031CA407BB29080020
:100400008316031306158612193099001811181255
:10041000831203139817831603139816831203137A
:1004200018160800FF3083120313A0008312031371
:100430008C1E222A1A0883120313A00083120313AE
:1004400018121816831203132008080083160313CA
:10045000AF007F08AE007E08B1007D08B00001301B
:10046000B200B301B401831603133408803E6F3E1B
:1004700003184A2A3408C13EB50000300318013E73
:10048000B6003508840083133618831700308000C7
:10049000B40A332A83120313051F542A9A30831691
:1004A0000313B2000230B300003083160313B5000B
:1004B000C130B400B6013208FC003308FD00340836
:1004C000FE003508FF000030C722003083160313FA
:1004D000B300C130B200B4010730B600DB30B50064
:1004E0008030B7003508FB003608FC003708FD00F7
:1004F0003208FE003308FF000030942300308316DA
:100500000313B300C130B200B4012E08FC002F0861
:10051000FD003208FE003308FF000030C722003023
:1005200083160313AF00C130AE00B2010730B40030
:10053000DB30B3008030B5003308FB003408FC002A
:100540003508FD002E08FE002F08FF000030942320
:10055000003083160313AF00C130AE00B201300883
:10056000FC003108FD002E08FE002F08FF000030BF
:10057000C722003083160313AF00C130AE00B001B4
:100580002E08FE002F08FF000030F5220800831619
:100590000313A7007F08A8007E08A9007D08AB0010
:1005A0007C08AA000030AD00BC30AC00FC002D0877
:1005B000FD000030FE002A08FF002B088A110320EE
:1005C0008A11003083160313AB00BC30AA00AC01C3
:1005D0002A08FB002B08FC000030FD002908FE0063
:1005E0002808FF0027089423080083160313A2009D
:1005F0007F08A1007E08A000A501640083160313F4
:10060000A401A3018316031324082007A6002108D0
:10061000A70023080318230FA70722080318013E89
:10062000A8002608FE002708FF0028088A113D2799
:100630008A1183160313A90029080319252B2908F9
:10064000A507A40A0319A30A022B8316031325087E
:10065000A400A3010030A600B830A500A70125081A
:10066000FC002608FD000030FE002408FF000030DA
:100670008A1103208A11053083160313A500A401F3
:10068000073083160313A600D430A3008030A700E0
:100690002308FE002608FF0027088A11EA208A1195
:1006A000831603132008FE002108FF0022088A1188
:1006B000EA208A11073083160313A600DB30A3005B
:1006C0008030A7002308FE002608FF0027088A11B3
:1006D000EA208A11003083160313A600B830A30065
:1006E000A7012308FE002608FF0000308A11EA2037
:1006F0008A11073083160313A600D830A300803078
:10070000A7002308FE002608FF0027088A11EA2018
:100710008A11FF3083160313A507031CA4032508C1
:100720002404031D402B080083160313A2007F0836
:10073000A1007E08A0007D08A5007C08A4007B081D
:10074000A300831603132008FE002108FF002208DF
:100750008A113D278A1183160313A6002608031960
:10076000B52BA00A0319A10AA12B83160313230892
:10077000FE002408FF0025088A113D278A118316F0
:100780000313A600FD002008FE002108FF00220838
:100790008A1131278A118316031326080319D72BD0
:1007A000A00A0319A10AA30A0319A40AB52B080079
:1007B00083160313E70083120313851483160313B0
:1007C000670881248A1136258A1183160313670866
:1007D000322483160313E8007F08E7008312031313
:1007E0008510831603136708FF0068080800831646
:1007F0000313E6008312031385148316031366089C
:1008000097248A1140258A1183120313851008004A
:1008100083160313E5008A1116258A11903083167A
:10082000031365078A11B1248A11AC308A11B124EF
:100830008A118A1116258A11913083160313E50750
:1008400065088A11B1248A1101308A11D8248A11CD
:1008500083160313E5008A1111258A1183160313E9
:100860006508080083160313DF008A1116258A1114
:100870009030831603135F07E0008A11B1248A11B8
:10088000AA308A11B1248A118A1116258A11913051
:1008900083160313DF075F088A11B1248A11003021
:1008A0008A11D8248A1183160313DF0001308A11BC
:1008B000D8248A1183160313E0008A1111258A11A6
:1008C00083160313E2015F08E100FD000030FE0023
:1008D0000030FF0001308A1171278A11831603133B
:1008E000E400E1007F08DF00E3016008E2005F0749
:1008F000E00000300318630FE4076008FF0064089D
:10090000080083160313DF008A1116258A11903020
:1009100083160313DF075F088A11B1248A11EE30B2
:100920008A11B1248A118A1111258A1108008316AF
:100930000313DE008A1116258A11913083160313E2
:10094000DE075E088A11B1248A11AC308A11B12405
:100950008A114A308A11B1248A118A1111258A110B
:10096000080083120313E500E60108308312031325
:1009700066020318C82CE51FC02C0130CC24C22C01
:100980000030CC24031083120313E50DE60AB52CC6
:10099000242531252925080083120313E400640867
:1009A0000319D42C2425D52C1C25312529250800F4
:1009B00083120313E000E10124250830831203139E
:1009C000E200031083120313E10DF82483120313D2
:1009D000E3006308031D6114E20BE12C60080319B6
:1009E000F32C0825F42C0C2583120313610808004E
:1009F000312583120313DF0183120313861C032D99
:100A000083120313DF0A2925831203135F080800EA
:100A100024253125292508001C25312529252425B3
:100A2000080029251C2531252425080029252425F1
:100A300031251C25292508008312031386108316EF
:100A400003138610542508008316031386145425B7
:100A5000080083120313061283160313061254258B
:100A60000800831603130616542508006430831209
:100A70000313DE00402583120313DE0B3A2D08001A
:100A80000A3083120313DD004A2583120313DD0BA2
:100A9000442D08003C3083120313DC0057258312D9
:100AA0000313DC0B4E2D0800572557250800013095
:100AB00083120313D800D901DA01DB01FF3083125E
:100AC0000313D807FF30031CD907FF30031CDA07D4
:100AD000FF30031CDB07580859045A045B04031D4C
:100AE0005E2D64000800CC30FE000730FF0080302F
:100AF0008A11000050278A11000083160313D300C7
:100B00007F08D200CE30D4000730D50083160313FF
:100B10005208D6005308D700FF30D207031CD30376
:100B2000560857040319032E04305407D600D70182
:100B3000D70D5508D7075608FE005708FF0080302C
:100B40008A11000050278A11000083160313D90070
:100B50007F08D8005408FE005508FF0080308A1135
:100B6000000050278A11000083160313DB00D70012
:100B70007F08DA00D60002305407D600D701D70D1F
:100B80005508D7075608FE005708FF0080308A1125
:100B9000000050278A11000083160313D700DD00E0
:100BA0007F08D600DC00831603135808DC005908C0
:100BB000DD00FF30D807031CD9035C085D0403196E
:100BC000FC2D5A08FE005B08FF0080308A110000EF
:100BD0003D278A11000083160313DC0056088400A9
:100BE0008313571883175C088000DA0A0319DB0A9D
:100BF000D60A0319D70AD32D063083160313D40758
:100C00000318D50A862D8A110000F02E08008312E1
:100C100003179D001D0EF0399E0003109E0D1E0A45
:100C20009D00831203139F048A1157258A11831292
:100C300003131F15831203131F191A2E1E08831284
:100C400003179D009E011D08FD000030FE000030CE
:100C5000FF0001308A1171278A11831203179E0049
:100C60007F089D00831603131E08831203179F003D
:100C7000A0011F089D0700300318200F9E071D08C4
:100C8000FF001E0808000730831603139C00F33092
:100C90008505851086110514051783120313851029
:100CA000F330850586110130831603139B008030D5
:100CB0009F008130831203139F00080083120313E7
:100CC000E8007F08E7007E08EA007D08E900EB0104
:100CD000EC010130ED00EE0169086A04031D742E79
:100CE000FF30FF00FF30AC2E8312031369086A083F
:100CF000EF00EF1B822E0310E90DEA0D0310ED0D3E
:100D0000EE0D742E831203136D086E040319A72EC3
:100D10006A086802031D8E2E69086702031C9E2E56
:100D2000831203136D08EB076E0803186E0FEC07B0
:100D30006908E7026A08031C6A0FE80203108312BD
:100D40000313EA0CE90C0310EE0CED0C822E831257
:100D500003136B08FF006C08080083160313EA00F6
:100D60007F08E9007E08EC007D08EB006C04031DA1
:100D7000BD2EFF30FF00FF30EF2E0130831603132E
:100D8000ED00831603136B086C08EE00EE1BCD2EEE
:100D90000310EB0DEC0DED0AC12E0030831603138A
:100DA0006D040319EA2E6C086A02031DD92E6B0824
:100DB0006902031CE32E831603136B08E9026C0817
:100DC000031C6C0FEA02031083160313EC0CEB0CEC
:100DD000ED03CD2E831603136908FF006A0808008F
:100DE000F4260627F12E08007030831603138F00B7
:100DF0008A11C5278A118A1100228A118A11432675
:100E00008A110E308A11F7238A11080000308A11E6
:100E100007268A11831203179A007F0899000E3063
:100E20008A11D8238A11831203179C007F089B0024
:100E30000C30831203138504831203171908FD0075
:100E40001A08FE001B08FF001C088A1126228A11BE
:100E5000F33083120313850586158A11B1278A1191
:100E60000800003A0319352F08007E088400831318
:100E70007F1883177D0880000800003A0319442F6B
:100E8000803A03194B2F00347E08840083137F18A7
:100E90008317000808007F088A007E088200080087
:100EA000003A0319582F803A0319622FFF010034CA
:100EB0007E08840083137F1883170008FF00840ACC
:100EC000000808008A1100004B27FD00FE0FFF03F9
:100ED000FF0A8A1100004B27FC007D08FF007C08F8
:100EE00008008312031791007F0890007E0893008A
:100EF0007D08920094019501083096008312031733
:100F0000101C882F1208940713080318130F950755
:100F10008312031710089700110898000030981BDF
:100F2000FF30181C9B2F970100309407120898007F
:100F30000318180F9507831203171008970011085C
:100F400098000310180C9100170C90000310920DDC
:100F5000930D960B7E2F1408FF0015080800630000
:100F6000080083120317A1018230831203172102A4
:100F70000318C42F6300831203138611051BC42FAB
:100F800083120317A10AB42F0800831603138115D7
:100F9000011581140114080001340034DD340734D4
:100FA00022340134013400345434483420340034C1
:0C0FB0000A340D340034203400340034C6
:02400E001C3F55
:02401000FF3F70
:00000001FF
